:020000040800F2
:100000006882012041020008013700086D350008B0
:10001000FD3600080D130008396D000800000000CF
:100020000000000000000000000000003144000853
:10003000571300080000000021420008B5470008DF
:100040005B0200085B0200085B0200085B0200081C
:100050005B0200085B0200085B0200085B0200080C
:100060005B0200085B0200085B0200080F13000837
:100070001B1300085B020008271300083313000855
:100080003F1300084B1300085B0200085B020008E6
:100090005B0200085B0200085B0200085B020008CC
:1000A0005B0200085B0200085B0200085B020008BC
:1000B0001F4800085F4800089F4800085B020008CE
:1000C0005B0200085B0200085B0200085B0200089C
:1000D0005B0200085B02000885510008915100088E
:1000E000591300085B0200085B020008E14B00089E
:1000F000274C00081B4C00085B0200085B0200084C
:100100005B0200085B020008DF4800085B02000891
:100110005B020008234F00085B0200082149000829
:100120005B0200085B0200085B0200085B0200083B
:100130005B0200085B0200085B0200085B0200082B
:100140005B0200085B0200085B0200085B0200081B
:100150005B0200085B0200085B020008A151000876
:100160005B0200085B0200085B0200085B020008FB
:100170005B020008193700085B020008000000005D
:100180005B0200085B02000800F002F800F049F88A
:100190000AA090E8000C82448344AAF10107DA45E2
:1001A00001D100F03EF8AFF2090EBAE80F0013F0EB
:1001B000010F18BFFB1A43F0010318473803010071
:1001C00078030100103A24BF78C878C1FAD85207E2
:1001D00024BF30C830C144BF04680C6070470000C1
:1001E0000023002400250026103A28BF78C1FBD840
:1001F000520728BF30C148BF0B607047642900F028
:10020000D380002070471FB50FF0CCFA9DE80300A3
:1002100000F038FA00F046FC1FBD10B500F0ABFC52
:1002200010BD00F009FD1146FFF7EDFF08F044FB9B
:1002300000F060FE03B4FFF7F0FF03BC06F018FF08
:100240000948804709480047FEE7FEE7FEE7FEE76A
:10025000FEE7FEE7FEE7FEE7FEE7FEE704480549A6
:10026000054A064B70470000034800088901000852
:10027000687A012068820120687C0120687C012066
:10028000704770B5064600F0E1F9056806F10B000D
:1002900020F00704B4429CBF002070BD2B466A6862
:1002A000BAB11068A04210D304F1080188423CBFE3
:1002B0005068586007D35168101941601168091BD4
:1002C000016058601460101D70BD13465268002A0A
:1002D000E7D12146284600F0C1F90028DED170BDE3
:1002E00070B50446051F00F0B1F90068002C14BF7A
:1002F000446870BD002C18BFAC423CBF2046646807
:10030000F8D301680A18AA4218BF456003D12A68C9
:1003100005461144016028684119A1421CBF6C6068
:1003200070BD6168696021680844286070BD000084
:100330000FB41CB5074B06AA7B446946009005988C
:1003400000F035FA0020694600F044FA1CBC5DF864
:1003500014FB00009904000070B50446856900682C
:10036000C10601D5302600E02026C00707D070BDA9
:10037000D4E9012130469047206A401C20626D1E5E
:10038000F6D570BD70B5044685690078C00707D101
:1003900070BDD4E9012120209047206A401C2062D2
:1003A0006D1EF6D570BD00002DE9F0410646002413
:1003B00010687529314616A510D0AFF300800028CB
:1003C00002DA404213A507E031688A0701D512A579
:1003D00002E0490704D511A5012401E0AFF3008034
:1003E00000210A2206F1240709E0B0FBF2FCB0FB71
:1003F000F2F302FB1C00303078541846491C0028E8
:10040000F3D123462A463046BDE8F04100F070B9EA
:10041000000000002D0000002B0000002000000064
:100420002DE9F05F894604464FF0000ADFF824B159
:10043000FB44C0F820A02046E168884700287DD012
:10044000252806D0D4E901219047206A401C20626B
:10045000F1E700255F462046E168884720280646E8
:1004600007DB312E05D2B81910F8200C08B105436E
:10047000F1E7A80701D525F00405C4F81CA0002762
:10048000C4F818A02A2E09D030460FF077F938B3F7
:1004900004EB8708303EC8F8186019E059F8041BCF
:1004A000204604EB87029161E1688847012F0646E8
:1004B00018D1E069002820DA25F020051DE0D8F8E1
:1004C000180000EB800006EB40003038C8F8180038
:1004D0002046E168884706460FF050F90028EED123
:1004E000012F0AD02E2E08D12046E16888477F1CB4
:1004F0000646022F45F02005C4DBA069002803DA78
:10050000404245F00105A061E80701D025F0100543
:10051000A6B1A6F14100192802D8203645F400659D
:100520004A463146204625604D46FFF767FE60B1DA
:10053000012807D0ED1D25F0070000E007E000F1DD
:10054000080978E705F1040975E730467AE7206A7B
:10055000BDE8F09F8AF3000010B5044603E00FF0F9
:1005600014F9401C09D014F8010B05490028F6D1F4
:10057000BDE810400A200FF008B94FF0FF3010BD61
:100580007C00002010B5431C02E010F8011B71B183
:100590008107FAD14FF0013202C88C1A8C4314EA59
:1005A000C211F9D0C01A0A0603D0C01E10BDC01A6D
:1005B00010BD0A0401D0801E10BD0902FCD0401EEF
:1005C00010BD00000000000030B44FF0013C50F8B6
:1005D000042B51F8043BCCFA52F4D51A20D1FCB9C3
:1005E00050F8042B51F8043BCCFA52F4D51A17D129
:1005F000B4B950F8042B51F8043BCCFA52F4D51A94
:100600000ED16CB950F8042B51F8043BCCFA52F4DB
:10061000D51A05D1002CDAD030BC4FF0000070475D
:1006200029BAB1FA81F111F01801D1F1200084400A
:10063000F2D1CA40CB4012F0FF0213F0FF0330BCEE
:10064000D01A70477047704770477047004870472E
:100650002C010020704770477047704738B504463A
:100660000A4600206946AFF30080002808BF38BD65
:1006700002460099204600F00FF9012038BD012004
:1006800000F0ACBAF8B5AFF30080054600200C4688
:10069000102000BF0646A819A0420DD9324669466F
:1006A0000020AFF30080070008BF00F097FA009821
:1006B000A04218BF0546C419FFF7C8FF05600746EA
:1006C000F01D20F007004619284600F00AF8B44251
:1006D00008BFF8BDA21B31463868BDE8F84000F0FD
:1006E000DBB800210160C0E901107047102070479D
:1006F0002DE9F0470D4699469246044600F124083C
:100700000168880604D5E06921F01001216000E04D
:100710000120A84201DD471B00E00027A1697A19EA
:1007200002EB0900081AA0612078C00602D4204616
:10073000FFF712FE002608E0D4E901211AF80600AE
:100740009047206A401C761C20624E45F4DB2078DE
:10075000C0060AD52046FFF7FFFD06E0D4E90121D7
:1007600030209047206A401C2062381EA7F1010704
:10077000F4DC07E0D4E9012118F805009047206A6D
:10078000401C2062281EA5F10105F3DC2046FFF77E
:10079000F9FD2078000602D50220BDE8F08701208F
:1007A000FBE7000001694A1C02610878704700B548
:1007B0008FB0CDE901310021059105497944CDE99A
:1007C000031011466846FFF72BFE0FB000BD000076
:1007D000E5FFFFFF0A6802F8010B0A60704710B5D9
:1007E000203AC0F00B80B1E81850A0E81850B1E8EA
:1007F0001850A0E81850203ABFF4F5AF5FEA027C29
:1008000024BFB1E81850A0E8185044BF18C918C058
:10081000BDE810405FEA827C24BF51F8043B40F8F9
:10082000043B08BF7047D20728BF31F8023B48BFDE
:1008300011F8012B28BF20F8023B48BF00F8012B1C
:1008400070474FF000020429C0F0128010F0030C32
:1008500000F0CD81CCF1040CBCF1020F18BF00F800
:10086000012BA8BF20F8022BA1EB0C0100F0BFB9AF
:100870005FEAC17C24BF00F8012B00F8012B48BFC0
:1008800000F8012B70470000004870472401002049
:100890000048704724010020034640688C46002829
:1008A00018BF88423CBF03464068F8D31868184414
:1008B000884207D00CF1030020F00700001D411A08
:1008C000521A0146081D0A60FFF70ABD2DE9F047DC
:1008D00005460C46C86820F4201040F48000C8602B
:1008E000800602D5084600F046FAE06841F282012F
:1008F0004FF0FF390140022903D0204600F0E4F90F
:10090000B5E000F42041B1F5004F0FD1C00306D58A
:100910006168E06A884200D80846606006E02069A5
:10092000E06260606069002000BFA061A0680022F2
:10093000EEB200280DDAE1688B050AD4C043A0604E
:1009400041F490302260E0606068411C6160067094
:10095000A5E0E0689046226040F40050E060206925
:1009600068BB606906F085FB012704F12405A0B18E
:10097000A08910F4407F08D0E069FFF782FC206175
:1009800018B1E06840F4006016E0E7612561E068B6
:1009900020F4407040F480600EE0E069FFF771FCE5
:1009A00000282061F1D0E06840F4006010F4407F3E
:1009B000E06002D140F48070E06020696060E0682F
:1009C00025696FF0010AC1051FD56168E06A884298
:1009D00000D80846411B04D02246284600F07EF984
:1009E000F0BBE068010203D5E562C4E9015854E0B8
:1009F000691CE1626160E16940F48030491EC4E92C
:100A0000021030462E70BDE8F087010202D500F4D6
:100A100080320AE06068411C61600670E0680A2E5E
:100A200040F48030E06006D00022E16A60688142D4
:100A300003D90B4602E00122F7E70346A7895B1BB7
:100A40007F0503D4E7699F4200DDE2B1814200D80F
:100A50000146E5620F1AC4E90158002B09DD00E0E8
:100A600005E022461946284600F038F908B1484604
:100A7000C9E747B1A069E5626560C01BA061E06895
:100A800040F01000E060E068000208D56168A069ED
:100A9000E562491B08446560A0615046B3E73046F3
:100AA000B1E7000010B54248542100F09EF84148DB
:100AB000542100F09AF84048542100F096F83F493C
:100AC0003B483C4A3F4B08603D490A603A4919603F
:100AD000531C0365481C1065012008653B48344AD7
:100AE00039A1784400F068F920B9384878440A38C8
:100AF00000F00EFA37482F4A35A1784400F05CF92F
:100B000020B9344878440A3800F002FA32482A4AB8
:100B10002FA1784400F050F920B92F4878440A38C2
:100B200000F0F6F940232248DC000021224600F0C4
:100B3000A8F820B125487844543800F0E9F91D4858
:100B400022464023002100F09CF820B1214878443F
:100B5000543800F0DDF9184822461023002100F037
:100B600090F8002806D01C487844BDE8104056385C
:100B700000F0CEB910BD104870B5006D20F0010432
:100B80000B4800F091F90B4800F08EF90A4800F08C
:100B90008BF909E0206D20F00105204600F084F972
:100BA0002046FFF79DFB2C46002CF3D170BD0000C2
:100BB000280000207C000020D000002000C0012080
:100BC0000000002004C001207200000042ED00007F
:100BD0007700000031ED00000AED000010B500F0D4
:100BE0009FF9BDE8104000F08EB94FF0000200B54B
:100BF000134694469646203922BFA0E80C50A0E840
:100C00000C50B1F12001BFF4F7AF090728BFA0E8ED
:100C10000C5048BF0CC05DF804EB890028BF40F8B9
:100C2000042B08BF704748BF20F8022B11F0804FFB
:100C300018BF00F8012B70477546FFF725FEAE463A
:100C400005006946534620F00700854618B020B5D8
:100C5000FFF704FBBDE820404FF000064FF000070F
:100C60004FF000084FF0000BAC46ACE8C009ACE810
:100C7000C009ACE8C009ACE8C00921F007018D4605
:100C8000704770B5C468A50713D0650211D4B2F5DA
:100C9000807F09D0B2F5007F06D0B2F5806F08D111
:100CA000012300F1240106E05D1E6FF07F46B5428E
:100CB00001D3012070BD0161C361416024F4706102
:100CC0001143C160002070BDC16821F4001141F0E2
:100CD0008001C16000218160016070472DE9F0470B
:100CE000814614460E464FF0FF383248D5685769A2
:100CF000054209D03846A1694FF0FF30002811DBCA
:100D00002C48C0430540E5602B46324649463846EC
:100D100006F0E6F9A16920F00042B21A1144002859
:100D2000A16103D02046FFF7CFFF4046BDE8F08722
:100D300070B504460569C06A6168884200D80846F3
:100D4000E16821F42011E160C90312D5A84208D05E
:100D50002246411B2846FFF7C1FF10B14FF0FF307C
:100D600070BD0020E562C4E90150E06820F48030E5
:100D7000E060002070BD10B50446C06820F020007F
:100D8000E060A16AA06988420DD02046FFF7D0FF3D
:100D9000E06820F4405040F01000E060A06AA061DC
:100DA0002069E062606044F24001E0688843E060EE
:100DB00010BD0000100002002DE9F0410C4616465F
:100DC000070047D0104600F06FF82078611C6128BA
:100DD0000AD0722802D077283CD102E001250024F5
:100DE00005E00225042402E0082448F2020511F877
:100DF000010B2B2806D0622809D011F8010C7428A9
:100E00000AD00BE045F0030544F00204EFE745F09B
:100E1000040544F00104EAE744F010043846214692
:100E200006F02FF9411C15D00021316171604FF49B
:100E30000071F560F1617061200704D5304602222F
:100E4000002100F095F8306D40F00100306530462B
:100E5000BDE8F0810020FBE72DE9F0410D46064694
:100E6000104C206DC10704D0410804D020F00104CB
:100E7000F7E722460EE05420FFF703FA07000ED0F2
:100E8000206D47F001010843542120653846FFF7E3
:100E9000ACFE3A4629463046BDE8F0418CE70020DA
:100EA000D6E70000280000202DE9F04704464FF067
:100EB00000094FF0FF37C568D4E90486A80707D0BA
:100EC0002046FFF735FF304606F0C8F8002802DA62
:100ED0003846BDE8F087280502D54046FFF700FAFE
:100EE0004C212046FFF781FE206D20F00100206597
:100EF0004846EEE710B50446AFF300802046BDE853
:100F00001040FFF797B9002801D006F0B1B870473C
:100F100010B500F0C3F8BDE81040FFF7F4BF0000C3
:100F200010B5012805D0002103A000F09DF8012094
:100F300010BD09A1F8E7000053494752544D454DF3
:100F40003A204F7574206F662068656170206D656A
:100F50006D6F7279000000003A2048656170206D65
:100F6000656D6F727920636F72727570746564005D
:100F70002DE9F041044616460D464769007B80077F
:100F80002ED0384606F075F850BB3EB3012E02D085
:100F9000022E25D104E0204600F0DFF805441DE0D4
:100FA0003846002000BFE168002841F01001E160F0
:100FB00005DA2046FFF788FE0120BDE8F081C9036D
:100FC0000BD56268E16A914200D81146A2691144CA
:100FD0002269891A814200DD08460544002D01DAA4
:100FE0000220EAE7E16A6068E268814206D2910382
:100FF000E06203D522F4003141F01002A669002717
:10100000AE4213DCE16A814201D90B4600E003469F
:1010100003EB060C2369ACEB030CAC4506DD814207
:1010200001D98C4600E084469C4505D1A760276025
:1010300042F02000A5620DE0AD1BE669AE1B8142C7
:10104000A66000D90846C01A281A206058196060A6
:1010500022F0200003490840E060002084F8487036
:10106000ABE70000BFCFD7FF70B505460C460A209E
:1010700000E06D1CAFF3008035B128780028F8D16E
:1010800002E0641CAFF3008014B120780028F8D18E
:10109000BDE870400A2006F04BB8000010B50146CC
:1010A00002A0FFF7E1FF012010BD000053494752A5
:1010B000545245443A2052656469726563743A201B
:1010C00063616E2774206F70656E3A200000000027
:1010D000032A40F2308010F0030C00F0158011F864
:1010E000013BBCF1020F624498BF11F801CB00F83C
:1010F000013B38BF11F8013BA2F1040298BF00F890
:1011000001CB38BF00F8013B11F003033FF467AB9C
:10111000083AC0F0088051F8043B083A51F804CB73
:10112000A0E80810F5E7121D5CBF51F8043B40F839
:10113000043BAFF30080D20724BF11F8013B11F844
:1011400001CB48BF11F8012B24BF00F8013B00F888
:1011500001CB48BF00F8012B704710B50146C268AB
:10116000900703D0900607D5886A0AE0FFF790FB46
:1011700001210160881E10BD8B69486818440B6905
:10118000C01A91F848301BB191F84910401A10BDAF
:101190001103FCD50028FADD401E10BD53EA020CF5
:1011A00000F069802DE9F04B4FF00006002B1FBFC7
:1011B000B3FA83F503FA05F424FA05F65E4012BF8C
:1011C0001643B2FA82F502FA05F4C5F120051EBFF6
:1011D00022FA05FC44EA0C04203556EA044C4FEA96
:1011E000144418BF641C4FF000084FF000099042EF
:1011F00071EB030C39D3002919BFB1FA81F701FA59
:1012000007F6B0FA80F700FA07F6C7F120071EBF0D
:1012100020FA07FC46EA0C062037B6FBF4FCA7EBE5
:101220000507103F07F01F0BCBF120062CFA06F63E
:101230000CFA0BFB44BFB3460026202FA4BF5E462A
:101240004FF0000B5BEA060C08BF4FF0010B19EBE7
:101250000B0948EB0608ABFB027C06FB02CC0BFB40
:1012600003CCC01B71EB0C01C1E70B4602464146A3
:101270004846BDE8F08B13B5084318BF4FF0FF3068
:101280000146AFF30080BDE81C40704702F0FF0349
:1012900043EA032242EA0242FFF7A9BCC16B0B6C8E
:1012A0000A6C13F0500F04D0D2060CD4896B096D70
:1012B000084742F4007008640868826812F0405FD2
:1012C00001D18A6902B17047C26A12F4700F02D06C
:1012D00082685205F7D4426822F020024260086C0E
:1012E00020F480700864086CC00448BF7047086C24
:1012F00040F0010008647047C06B40210164416CFC
:1013000041F004014164704770470000FEE740F679
:101310000050C2F2000000F0EFB840F62C60C2F2BC
:10132000000000F0E9B840F69060C2F2000000F062
:10133000E3B840F69C40C2F2000000F0DDB840F691
:101340006450C2F2000000F0D7B840F6C850C2F2B4
:10135000000000F0D1B8704743F61440C4F2010019
:101360000168C90458BF70474FF4805101604CF2C6
:101370007C10C2F20100006809F03CBCF0B581B0FD
:10138000002140F6E43C0091C2F2000CDCF83C1075
:10139000012901D102206CE00268012197B27B0093
:1013A00013FA82F4DCF80030CCF83C101021092A42
:1013B00084BF0C211E3C07255E58A540AE435E50FD
:1013C00086685D58A6402E435E504068062805D8C2
:1013D00000EB8000053803F1340409E00C2800EB31
:1013E000800087BF413803F12C04233803F1300417
:1013F0001F212568814025EA0101216042F2043E57
:101400002168C4F2010E07FA00F00843AEF54171FD
:101410008B4220602AD1122A06D1DEF8000040F467
:101420008000CEF8000021E022F0010010281DD13C
:10143000DEF80000102A40F40000CEF8000015D1BC
:1014400040F20400C2F2000000684DF68361C4F26D
:101450001B31A0FB0101880C00EB8000400000BFA5
:101460000090009810B100980138F9E70020CCF8FE
:101470003C0001B0F0BD000010B541F2F062C2F2D4
:1014800001020146D0F85CC01368806B022823D1AA
:101490000868D1F844E00468BEF1000F24F0160497
:1014A0000460446924F08004446101D1CC6C1CB117
:1014B000046824F008040460046824F00104046053
:1014C0000468E4070CD01468E41A052CF8D920202D
:1014D0008865032088630CE080208865012008E08F
:1014E000086E3F2202FA00F0CCF808000120886361
:1014F000002000224A6310BDF0B581B004460020F0
:10150000009040F20400C2F200000268D4E91760C3
:1015100048F2B51337680821C1F64E33814039428D
:10152000A2FB03250CD0226813685B0708D513685B
:1015300023F004031360B160A16D41F00101A165C6
:1015400001218140394208D022685269120604D52F
:10155000B160A16D41F00201A165042181403942D1
:1015600008D022681268920704D5B160A16D41F0DD
:101570000401A16510218140394217D0206802681A
:10158000120713D5B16002680168520306D4C90579
:1015900006D4016821F00801016001E0080301D4CC
:1015A000616C00E0E16C09B120468847216E202083
:1015B00000FA01F23A4237D020680368DB0633D5DF
:1015C000B260A36B0268052B18D122F016020260EC
:1015D000426922F080024261626C0AB9E26C1AB17F
:1015E000026822F0080202603F208840B0600120BB
:1015F000A063616D0020606391BB33E0016852031A
:101600000AD4C9050CD4016821F010010160012041
:10161000A0630020606303E0080301D4A16C00E034
:10162000216C09B120468847A06DD8B1A06DC007D4
:1016300014D00520A0632068A90A026822F00102E4
:10164000026000BF009A01328A42009202D802680A
:10165000D207F7D10120A06300206063216D09B19A
:101660002046884701B0F0BD2DE9F04141F2F0611C
:10167000C2F201010B6800284AD0022282630025D1
:1016800002684563156825F0010515601568ED07CA
:1016900007D00D68ED1A052DF8D903232025032165
:1016A0006BE0116848F23F03CFF21003D0E9015418
:1016B0000B4000F10C0E9EE8C2512B43234319430B
:1016C0003143394341EA0801436A41EA0C01042BE2
:1016D00041EA0E051ED1D0E90A4E016B4EEA050320
:1016E000194311605169BEF1000F21F0030141EA75
:1016F000040141F0040C13D0B8F5005F34D0B8F108
:10170000000F43D1022C44D0012C39D0002C3FE0F3
:10171000012126E01560516921F0070141EA030C1F
:101720006FF00F014AF6AB2351FA82F1CAF6AA23F1
:10173000A1FB03373B091BA7FB5C40F2FF375F2986
:101740004FF03F01C2F814C022EA070201FA03F188
:1017500088BF0432C0E917239160012300250021CE
:101760000BE00846BDE8F081032CD9D801234025C1
:101770000121DFE804F0020E020585658363F0E7CE
:10178000AEF1C071B1FA81F1490904E0032C04D330
:10179000C6D1CEF300610029C2D00123402501212A
:1017A000EBE700BF000610160006101670B5D0F863
:1017B00034C0BCF1010F08BF70BD4FF0010CC0F880
:1017C00034C0D0F85CE0D0F838C0BCF1010F36D19D
:1017D0004FF0020CC0F838C04FF0000CC0F858C0F1
:1017E000D0F800C08468456C006EDCF80060402CC6
:1017F00026F48026CCF80060CCF804300B4604BFF9
:1018000013460A463F2101FA00F0CCF80830CCF824
:101810000C20CEF80800DCF8000040F01600CCF8F0
:1018200000002DB1DCF8000040F00800CCF800000A
:10183000DCF8000040F00100CCF8000070BD002191
:10184000416370BD2DE9F04F82B000F13E4241F698
:10185000004502F1FF77C4F2020508224FEAB726DD
:10186000A84208BF0722072E38BF4FEAB7224FF021
:10187000010A002400274FF0000800920E680AFABF
:1018800008F916EA090F00F0AE80D1F804A00AF0BA
:10189000030BABF10106012E18D80322866802FA69
:1018A00004FECA6826EA0E06A240324382604268FD
:1018B000CAF3001522EA090205FA08F54FEA480CB6
:1018C0006FEA0E062A4342600CE000BF0322A240EA
:1018D000D643BBF1030FA44604D1A4464FF0030B3B
:1018E00022E000BFC2688D68324005FA0CF52A4339
:1018F000BBF1020FC26017D16FF0030202EA580277
:10190000024407F01C030F25D2F820E005FA03FA81
:101910000D692EEA0A0E05FA03F343EA0E03136279
:10192000D1F804A00AF0030B02680BFA0CF3324062
:101930001A431AF4403F4FF0010A026053D00022CC
:1019400043F644030192C4F202031A6843F6004EC0
:1019500042F480421A601A68C4F2010E02F4804216
:101960000192019A28F003024FF6084C7244CFF618
:10197000FF7C52F80C3007F00C060F25B540AB4346
:10198000009D05FA06F6334342F80C30DEF80820D5
:101990004B6842EA090643F60C4CDD0258BF22EAC6
:1019A0000906CEF80860C4F2010CDCF800209D02A4
:1019B00042EA090658BF22EA0906CCF80060DEF8C0
:1019C00004209D0342EA090658BF22EA0906CEF820
:1019D0000460DEF80020DB0342EA090658BF22EA71
:1019E0000906CEF8006008F101080437B8F1100FBD
:1019F00004F102047FF442AF02B0BDE8F08FB0B54D
:101A000082B0002143F608020191C4F20202936BF6
:101A10004FF6D81443F480739363936BC0F60004BD
:101A200003F480730193019B1368136813681568AE
:101A3000D2F8F85340F20405C2F200052D6812688E
:101A400013F4E053C2F38222A25C18BF012325FAEB
:101A500002F29A404DF68363C4F21B33A2FB0323C8
:101A600004464FF0FF3041F2C47542F2000200EB31
:101A70009340C2F20005C4F2000240F2E733C5E928
:101A800000202846C5E902132961A96100F04DF93B
:101A9000002874D1286C012871D10220286428689C
:101AA00041F2FF72C168C4F20002904241F00101AC
:101AB000C1600BDC40F2FF71C4F20001884213DC0C
:101AC000B0F1804F27D040F2004115E040F2FF31E5
:101AD000C4F20101884212DC41F60001C4F20001A7
:101AE000884218D0002112E040F60001C4F2000143
:101AF000884210D040F60041C4F2000109E044F2EF
:101B00000001C4F20101884205D040F20041C4F254
:101B10000101884204D1816801F00701062903D040
:101B2000016841F0010101604EF20410CEF20000A4
:101B30004FF4005101600F2C21D84EF60C50CEF21C
:101B4000000000684FF0FF32C0F3022080F0070170
:101B5000042928BF0421033802FA01F138BF00200C
:101B600024EA010101FA00F04EF22D410001CEF20B
:101B7000000108704CF27000C2F20100046002B073
:101B8000B0BD7047704700002DE9F04F87B00446A4
:101B900043F6000602A81421C4F20006FFF725F858
:101BA0002068B04202D007B0BDE8F08F002743F6AE
:101BB00030050197C4F2020528690DF1080840F4C8
:101BC0008040286128694FF0020900F480400190AC
:101BD0000198019728684FF0030A40F0040028603C
:101BE00028684FF0050B00F0040001900198019760
:101BF0002868414640F002002860286800F0020092
:101C0000019001980820029006F5E830CDE903978D
:101C1000CDF814A0CDF818B0FFF714FE4FF4005023
:101C2000CDE9020904A880E8800C06F5E6304146BB
:101C3000FFF708FE05F5215040F69C45C2F200056D
:101C400040214FF48062C5E90007C5E9021705F19C
:101C5000140014212A61FEF7C8FF2846FFF704FD8F
:101C600008B172B6FEE7A564EC639CE77047704765
:101C7000704770477047704770477047704710B59E
:101C8000C36B4FF0020C012B4DD00123C363C0F88E
:101C900040C00468D4F804E0D4F808C02EF0700303
:101CA000194341F2FF73C4F200039C4261600BDCF4
:101CB00040F2FF71C4F200018C4213DCB4F1804F9A
:101CC00027D040F2004115E040F2FF31C4F201019B
:101CD0008C4212DC41F60001C4F200018C4218D0A3
:101CE000002112E040F60001C4F200018C4210D045
:101CF00040F60041C4F2000109E044F20001C4F2E0
:101D000001018C4205D040F20041C4F201018C4235
:101D100003D12CF080011143A16001214FF0000C90
:101D20000164C0F83CC0604610BD00286CD070B59E
:101D30000446006C002854D10020E06342F6553080
:101D4000C0F6000042F6753142F6773242F2E93CC5
:101D5000C0F60001C0F6000242F67933C0F6000C6E
:101D600042F2EB3E42F2236542F6AD16C4F8A00003
:101D700042F6AF10C0F60003C0F6000EC0F6000534
:101D8000C0F60006C4F8A410C4F8A820C4F8B0C077
:101D9000C0F6000042F2E73141F67B4204F1C00C8C
:101DA000C4F8AC30C4F8B4E0C4E92E56C0F6000163
:101DB000C0F600028CE80700A16E41F67D4341F6B3
:101DC0007946C0F60003C0F60006C4F8CC30C4F86B
:101DD000D06021B941F60D61C0F60001A166204630
:101DE0008847022020642068211D02F096FF012010
:101DF00060666064A064E06420656065A065E0657D
:101E000020662064002070BD0120704781B000680A
:101E10004FF6FF71C4F2000188421FDD44F2FF312A
:101E2000C4F20101884239DC0021C4F20101884278
:101E30004ED044F20001C4F20101884240F081809A
:101E40000020009043F64000C4F20200416841F4D3
:101E500080314160406800F4803070E041F2004120
:101E6000C4F20001884241D041F60001C4F20001F1
:101E7000884257D041F60041C4F20001884260D147
:101E80000020009043F64000C4F20200016841F0D7
:101E900080010160006800F0800050E044F20041E1
:101EA000C4F2010188422FD044F60001C4F20101BE
:101EB000884246D10020009043F64000C4F2020060
:101EC000416841F480214160406800F4802036E0A0
:101ED0000020009043F64000C4F20200416841F047
:101EE00001014160406800F0010028E000200090FE
:101EF00043F64000C4F20200016841F02001016095
:101F0000006800F020001AE00020009043F6400036
:101F1000C4F20200416841F400314160406800F4BD
:101F200000300CE00020009043F64000C4F20200B4
:101F3000016841F040010160006800F0400000903D
:101F4000009801B0704780B5C26B012A4FF00202C1
:101F500000F0BE800123C3630264D0F800C04FF6D6
:101F60007772DCF8083023EA0202CCF808200B680C
:101F70004F2B28DC1F2B43DD202B44D0302B42D0AD
:101F8000402B40F0A780D1F804E0C968DCF820308D
:101F9000DCF8202022F00102CCF82020DCF8182008
:101FA00022F0F00242EA011123F00A0242EA0E0294
:101FB000CCF81810CCF82020DCF8081041F04701CC
:101FC00021F030017DE06F2B25DDB3F5005F46D0B9
:101FD000B3F5805F77D0702B7CD1D1E901E3C9687C
:101FE000DCF8082043EA0E0322F47F4243EA012191
:101FF0001143CCF80810DCF8081041F0770160E0DC
:102000000BB1102B66D1DCF8081021F070011943D8
:1020100041F0070155E0502B34D0602B5AD1D1F854
:1020200004E0C968DCF82030DCF8202022F010023F
:10203000CCF82020DCF8182022F4704242EA01316A
:1020400023F0A00242EA0E12CCF81810CCF820209F
:10205000DCF8081041F0670121F0100131E0D1E90E
:1020600001E3C968DCF8082043EA0E0322F47F424A
:1020700043EA01211143CCF80810DCF8081041F4C0
:1020800080411EE0D1F804E0C968DCF82030DCF8BB
:10209000202022F00102CCF82020DCF8182022F0C9
:1020A000F00242EA011123F00A0242EA0E02CCF8E1
:1020B0001810CCF82020DCF8081041F0570121F06E
:1020C0002001CCF808100022012101640021C16325
:1020D000104680BD0122F7E7002800F097802DE927
:1020E000F0470446006C0D4600284ED10020E06306
:1020F00042F65530C0F6000042F6753142F67732AE
:1021000042F6793342F2E93C42F2EB3E04F1A00898
:10211000C0F60001C0F60002C0F60003C0F6000CD5
:10212000C0F6000E42F2236642F6AD1788E80F5063
:1021300042F6AF10C0F60006C0F60007C0F6000079
:1021400042F2E73141F67B4204F1C00CC4E92E674C
:10215000C0F60001C0F600028CE80700D4F8901029
:1021600041F67D4341F67947C0F60003C0F600070B
:10217000C4F8CC30C4F8D07029B942F21121C0F6AD
:102180000001C4F89010204688470220206420688F
:1021900044F20702816891438160211D02F0BDFD78
:1021A00020684FF6FF7881688269D0F820C0D5E9B1
:1021B000007ED5E9023A47EA0109AF6922EA08023E
:1021C00043EA07234FF6FC47BB43D5E9077642EACB
:1021D0000A0229691A4342EA072242EA01112CF055
:1021E000AA026B6942EA0E0241EA063142EA031290
:1021F000C0F8089081610262012060666064A0649A
:102200006065A06520640020BDE8F087012070476C
:10221000F0B587B0044602A81421FEF7E6FC20685A
:1022200000F140404FEAB020032800F2AF80DFE821
:1022300000F0023D5D82002043F630010190C4F2BF
:1022400002010A6940F2004442F001020A610A698F
:10225000C4F2020402F001020192019A01900A689C
:10226000022542F001020A600A68012602F001021A
:102270000192019A01900868032740F0020008606B
:10228000086802A900F00200019001984FF4004094
:102290000290A4F5806003950496CDE90576FFF7DA
:1022A000D1FA082002A9E1C106966BE0002043F6AE
:1022B00030010190C4F202010A6942F002020A618F
:1022C0000A6902F002020192019A01900A6842F042
:1022D00002020A60096801F00201019101993021AE
:1022E00002910221CDE9031003201DE0002043F6F6
:1022F00030010190C4F202010A6942F004020A614D
:102300000A6902F004020192019A01900A6842F0FF
:1023100002020A60096801F0020101910199C021DD
:1023200002910221CDE9031040F20044059006918C
:10233000C4F2020426E0002043F630010190C4F20A
:1023400002010A6942F008020A610A6902F0080201
:102350000192019A01900868012240F00100086092
:102360000868022100F0010001900198032002900A
:102370000391CDE9042040F20040C4F20200A0F530
:102380008064069102A92046FFF75CFA07B0F0BD11
:10239000416C836C426DD0F858C0012908BF012BF5
:1023A00000D07047012AFCD1BCF1010F18BF704763
:1023B000022141648164416581650068016A21F000
:1023C00001010162016A41F001010162016A21F02B
:1023D00010010162016A41F010010162016841F0DF
:1023E000010101607047704770477047B0B50446FF
:1023F0000068C168026902EA0105A90714D56FF0F7
:10240000020101610121E1618069800702D0D4F8F5
:10241000B01005E0D4F8B81020468847D4F8BC10B6
:10242000204688470020E061680716D520686FF0D5
:10243000040101610221E161806910F4407F02D052
:10244000D4F8B01005E0D4F8B81020468847D4F886
:10245000BC10204688470020E061280715D5206879
:102460006FF0080101610421E161C069800702D0B9
:10247000D4F8B01005E0D4F8B81020468847D4F856
:10248000BC10204688470020E061E80616D5206889
:102490006FF0100101610821E161C06910F4407F13
:1024A00002D0D4F8B01005E0D4F8B8102046884720
:1024B000D4F8BC10204688470020E061E80707D028
:1024C0002068D4F8A0106FF001020261204688470E
:1024D000280607D52068D4F8D0106FF0800202617A
:1024E00020468847680607D52068D4F8A8106FF002
:1024F0004002026120468847A80658BFB0BD216847
:10250000D4F8C8206FF0200320460B61BDE8B0402E
:10251000104710B586B0044601A81421FEF765FBEC
:10252000206844F2FF31C4F2010188421CDC002122
:10253000C4F20101884237D044F20001C4F2010123
:1025400088426CD1002143F630000091C4F20200B1
:10255000026842F0100202600068032200F01000DE
:1025600000900098602032E044F20041C4F2010182
:10257000884234D044F60001C4F2010188424ED1B1
:102580000020009043F63000C4F2020001680322EC
:1025900041F0020101600068022100F00200009099
:1025A00000984FF400702CE00020009043F63000BB
:1025B000C4F202000168012241F0100101600068CC
:1025C000022100F01000009000984FF4D4400190D8
:1025D00040F20040C4F2020000F5406016E0002125
:1025E00043F630000091C4F20200026842F0020299
:1025F00002600068032200F00200009000984FF48F
:102600008070019040F20040C4F202000223029365
:102610000023CDE9033101A90592FFF713F906B0B4
:1026200010BD704700286CD070B50446006C0028BF
:1026300054D10020E06342F65530C0F6000042F667
:10264000753142F6773242F2E93CC0F60001C0F63D
:10265000000242F67933C0F6000C42F2EB3E42F241
:10266000236542F6AD16C4F8A00042F6AF10C0F6DE
:102670000003C0F6000EC0F60005C0F60006C4F860
:10268000A410C4F8A820C4F8B0C0C0F6000042F2FC
:10269000E73141F67B4204F1C00CC4F8AC30C4F819
:1026A000B4E0C4E92E56C0F60001C0F600028CE882
:1026B0000700A16F41F67D4341F67946C0F600035D
:1026C000C0F60006C4F8CC30C4F8D06021B942F29C
:1026D0000771C0F60001A1672046884702202064E8
:1026E0002068211D02F019FB012060666064A0646F
:1026F000E06420656065A065E065206620640020D8
:1027000070BD0120704770472DE9F0410446C06B51
:10271000012804BF0220BDE8F0810D464FEAB20156
:1027200001200329E06300F2C980DFE801F0021212
:1027300052922068294602F086FB206850F8181F44
:1027400041F008010160016821F0040101602A697B
:10275000B0E0216840F2004E0B6A086AC4F2010E34
:1027600020F0100008620846D1F8048050F8186F75
:102770002A6826F4E646AF6846EA022C23F02002D7
:1027800041F48066764542EA071307D123F0C00280
:10279000EB686FF0400707EA03131343764507D150
:1027A000D5E9057628F4406242EA870242EA8608C3
:1027B000C1F80480C1F818C06A682F698A630B6287
:1027C0008A6942F400628A618A6922F480628A61BD
:1027D0006FE0216840F200480A6A086AC4F2010802
:1027E00020F4807008620846D1F804E050F81C3FDD
:1027F0002F6823F07303AE6843EA070C22F40073DA
:1028000041F48062424543EA062307D1EE6840F274
:10281000FF47360223F44063BE433343424507D1AA
:10282000D5E905762EF4405242EA071242EA061E26
:10283000C1F804E0C1F81CC06F682A69CF630B625D
:10284000CB6943F00803CB61CB6923F00403CB6170
:1028500030E0216840F20043D1F820C0086A41F41A
:10286000806620F48050086208464A6850F81C7F51
:10287000C4F201039E422B6827F4E647AE6847EA9C
:1028800003272CF4005343EA063304D16E6922F483
:10289000804242EA86124A60CF616A682F690A6400
:1028A0000B62CA6942F40062CA61CA6922F480629A
:1028B000CA613A0201681143016000200021E1630E
:1028C000BDE8F08100286ED070B50446006C002889
:1028D00056D10020E06342F65530C0F6000042F6C3
:1028E000753142F6773242F2E93CC0F60001C0F69B
:1028F000000242F67933C0F6000C42F2EB3E42F29F
:10290000236542F6AD16C4F8A00042F6AF10C0F63B
:102910000003C0F6000EC0F60005C0F60006C4F8BD
:10292000A410C4F8A820C4F8B0C0C0F6000042F259
:10293000E73141F67B4204F1C00CC4F8AC30C4F876
:10294000B4E0C4E92E56C0F60001C0F600028CE8DF
:102950000700D4F8801041F67D4341F67946C0F671
:102960000003C0F60006C4F8CC30C4F8D06029B922
:1029700042F6AB11C0F60001C4F88010204688472B
:10298000022020642068211D02F0C7F90120606642
:102990006064A064E06420656065A065E065206611
:1029A0002064002070BD0120704770477047704759
:1029B00041B1082909D0042914BF00F1500200F1E7
:1029C000480204E000F1440201E000F14C02126808
:1029D000012A7BD141B1082909D0042914BF00F193
:1029E000500200F1480204E000F1440201E000F16D
:1029F0004C0202231360006801F01F010122036AE8
:102A000002FA01F123EA01020262026A0A4341F278
:102A1000FF71C4F20001884202620BDC40F2FF71D8
:102A2000C4F20001884213DCB0F1804F44D040F280
:102A3000004115E040F2FF32C4F20102904214DC82
:102A400041F60003C4F20003984235D0002314E09D
:102A500040F60001C4F2000188422DD040F600414A
:102A6000C4F20001884227D02CE044F20003C4F2F3
:102A70000103984220D040F20043C4F2010398427F
:102A800020D1436C884243F400434364C6DD904246
:102A900007DC41F60001C4F2000188420CD000219D
:102AA00007E044F20001C4F20101884204D040F280
:102AB0000041C4F20101D5E7816801F00701062950
:102AC00008BF7047016841F001010160704710B50F
:102AD000026801F01F0E4FF0010C146A0CFA0EF39D
:102AE00024EA0303136240F20043D2F820C042F408
:102AF0008064C4F201039C42C2F820C00DD1136A65
:102B000041F21114234208D1136A40F24444234293
:102B100003D1536C23F400435364136A41F211143C
:102B2000234208D1136A40F24444234203D113687C
:102B300023F001031360082906D0042906D00029D8
:102B400014BF5030443002E04C3000E048300121E6
:102B5000016010BD006842F20001C4F20001884229
:102B600018BF704741F2F060C2F201000168013104
:102B700001607047704770477047000070B582B0C1
:102B80000446806C202861D113460A4600295DD096
:102B9000002B5BD001202063002622206663A26206
:102BA000A385E664A0642168E06B44F6997C45F255
:102BB000190E44F63D75C0F6000CC0F6000EC0F6C6
:102BC00000050431C0E910CEC0E91456FEF7EEFD51
:102BD000019620680168019141680191019921697C
:102BE00051B100BF50E8030F216840F4807041E804
:102BF00003020AB12068F5E7206850E8050F216854
:102C000040F0010041E80502002AF5D1206850E8B3
:102C1000050F216840F0400041E80502002AF5D187
:102C2000206B012812D100200090206801680091DB
:102C300041680091009900BF50E8030F216840F0FF
:102C4000100041E803020AB12068F5E702B070BD48
:102C50007047704710B50446206850E8030F21689C
:102C600020F4907041E80302002AF5D1206850E872
:102C7000050F216820F0010041E80502002AF5D186
:102C8000206B01280AD100BF206850E8030F21689B
:102C900020F0100041E80302002AF5D1206850F826
:102CA000141F49061AD550E8000F00BF216820F014
:102CB000400041E805021AB1206850E8050FF5E729
:102CC000E06B58B100214165FEF7D6FB30B1E06BF7
:102CD000806D202802D11020E06410BD002020214A
:102CE000E085A164206310BD704770477047000005
:102CF000F0B581B004460068026884465CF80C3F79
:102D0000456902F02F01202903F0200106D129B1E5
:102D1000204601B0BDE8F04002F0D4B95FEA027E7F
:102D200008D005F0010713F4907F87F0010655D114
:102D3000002E53D0266B03EA0201CA063ED5012EAF
:102D40003CD10021009101680091416800910099F7
:102D50004069400600F19780A08DE18DE28D002A48
:102D600000F02B81401A010400F027815CE8001F6D
:102D7000226821F4907142E803131BB1216851E8E5
:102D8000031FF5E7216851E8051F226821F00101C2
:102D900042E80513002BF5D12021A1640021216315
:102DA000216851E8031F226821F0100142E8031353
:102DB000002BF5D102216163626FACE00A0600F1DD
:102DC000B080480640F1F980DCF8000020F04000B7
:102DD000CCF8000020206064616DCAE0D50718BF00
:102DE00013F4807503D0E56C45F00105E56402F04D
:102DF00004054FF0010C8CEA9505354303D1E56CD1
:102E000045F00205E56402F002058CEA55052E4303
:102E100003D1E66C46F00406E664394318BF01218D
:102E2000BEF1000F04D519B1E16C41F00801E16475
:102E3000E16C002900F0C18003EA0201890603D594
:102E4000204602F03FF920684069E16C00F0400044
:102E500001F00801401873D0204602F00BF92068F9
:102E600050F8141F490640F1838050E8000F00BF5E
:102E7000216820F0400041E80502002A66D0206861
:102E800050E8050FF4E7E16B0868426893B2002B45
:102E900000F09380A08D834280F08F80E285C96925
:102EA000B1F5807F32D05CE8000F00BF216820F4CC
:102EB000807041E803021AB1206850E8030FF5E77B
:102EC000206850E8050F216820F0010041E8050264
:102ED000002AF5D1206850E8050F216820F0400055
:102EE00041E80502002AF5D12020A06400202063DB
:102EF000206850E8030F216820F0100041E8030229
:102F0000002AF5D1E06BFEF7B7FAA08D02216163CC
:102F1000626FE18D401A81B2204601B0BDE8F040F9
:102F20001047616C212948D1A168B1F5805F01D1BA
:102F3000216951B3216A4A1C2262097841602BE061
:102F4000216E204688470020E06436E0E06B78B1CF
:102F500044F62F71C0F600014165816B02290DD145
:102F6000052181630068016821F00101016024E00E
:102F7000216E204601B0BDE8F04008478021816500
:102F800001B0BDE8F04001F0D2BF216A31F8022B58
:102F90006FF35F2242602162E08C01380104E0841B
:102FA0000BD1DCF8000020F08000CCF80000DCF849
:102FB000000040F04000CCF8000001B0F0BD002857
:102FC00000F0A28070B50446406CC8BB002043F2FC
:102FD0006751206443F26950C0F60001C0F600005A
:102FE0006165A16F43F2EF4243F2ED4342F6ED45D6
:102FF00042F6534C42F6EB4E42F6E946206542F665
:103000005140C0F60002C0F60003C0F60005C0F64D
:10301000000CC0F6000EC0F60006C0F60000A26567
:10302000E3652566C4F864C0C4F868E0E6666067D6
:1030300021B943F26D11C0F60001A167204688470F
:10304000242060642568D4E90212E069EB6823F467
:103050000053EB602B6923F440531A432A61D4E9EF
:1030600004231143EA68194349F20C6301439A436C
:103070001143E9606969A26921F4407141F200439A
:10308000114345F48062C4F201039A4240F2040203
:1030900043F60803C2F20002C4F20203696114BFDE
:1030A0000A210D2112681B68B0F5004F23FA01F1C7
:1030B0004FF6D81301F00701C0F60003595C6368AE
:1030C00022FA01F14FF01902A1FB02011ED15A00B0
:1030D000DB0FFEF763F848F21F51C5F2EB11A0FBBE
:1030E00001235A096FF0630302FB0300322303EB51
:1030F000C000A0FB01014FF4F87000EA111000EBD2
:103100000210C1F342111CE0012070479A009B0F8E
:10311000FEF744F848F21F51C5F2EB11A0FB012362
:103120005A096FF0630302FB0300322303EB001024
:10313000A0FB0101F02000EA511000EB0210C1F3E6
:1031400043110843A8602869202120F49040286199
:10315000686920F02A006861E86840F40050E8607F
:103160000020E0646164A164606370BD2DE9F047F4
:1031700086B0044601A81421FDF737FD206844F607
:10318000FF71C4F20001884279DD41F20041C4F2CE
:103190000101884200F0D18041F20001C4F2010136
:1031A000884200F0F38045F20001C4F20001884239
:1031B00040F09981002643F630000096C4F20200E8
:1031C0000169002741F4801101610169C4F202071D
:1031D00001F48011009100990096016801AD41F061
:1031E0000401016001684FF0020801F00401009140
:1031F0000099009601684FF0030941F00801016051
:1032000000684FF0080A00F00800009000984FF4A2
:103210008050019007F500602946CDE90286CDF87F
:103220001090CDF814A0FEF70DFB0420CDE90108A5
:1032300003A880E8400607F540602946FEF702FB38
:1032400040F6005546F21000C2F20005C4F202003A
:103250004FF000614FF4806285E843004FF4803006
:10326000C5E90362C5E90566EE61C5E908062846B9
:10327000FEF7FAF9002800F0FE8072B6FEE744F28D
:103280000041C4F20001884200F0AA8044F6000127
:10329000C4F20001884240F02681002643F6300047
:1032A0000096C4F20200016946F2100841F4802140
:1032B00001610169C4F2020801F4802100910099C2
:1032C0000096016841F008010160006801A900F062
:1032D0000800009000984FF4407001900220CDE962
:1032E000020603200490072005900020C4F202008B
:1032F00000F54060FEF7A6FA40F62C6508F11800CC
:10330000C2F200054FF0006A4FF480694FF48071FB
:10331000C5E9000A4FF400372846C5E90266C5E949
:103320000496C5E90661C5E90876FEF79DF900280F
:1033300000F0A38072B600BFFEE7002043F6300124
:103340000090C4F202014A6942F020024A614A69CF
:1033500002F020020092009A0090086840F00400F9
:103360000860086800F0040000900098C0200190F8
:103370000220029001200390032004900820059071
:103380000020C4F2020000F5006025E0002043F6B2
:1033900030010090C4F202014A6942F010024A6111
:1033A0004A6902F010020092009A00900A6842F006
:1033B00001020A60096801F00101009100994FF4CF
:1033C000C06101910221CDE9021003200490072081
:1033D00005900020C4F2020001A9FEF733FA82E052
:1033E000002643F630000096C4F20200016946F25E
:1033F000100841F4003101610169C4F2020801F4CE
:103400000031009100990096016841F008010160C7
:10341000006801A900F00800009000986020019069
:103420000220CDE902060320049007200590002029
:10343000C4F2020000F54060FEF704FA40F664555D
:1034400008F17800C2F200054FF0006A4FF480697D
:10345000C5E9000A4FF480372846C5E90266C5E988
:103460000496C5E90666C5E90876FEF7FDF8F0B1F1
:1034700072B600BFFEE7E56334E0E563EC6340F657
:10348000906508F14800C2F200054021C5E9000A34
:1034900005F1080080E842022846C5E90566C5E94D
:1034A00007676E62FEF7E0F8D8B172B6FEE7E56333
:1034B000EC6340F6C85508F19000C2F200054021C7
:1034C000C5E9000A05F1080080E842022846C5E97E
:1034D0000566C5E907676E62FEF7C6F808B172B601
:1034E000FEE7A563EC6306B0BDE8F0877047704760
:1034F000B0B50446406C202834D199B3002A134655
:1035000008BFB0BD4FF0000C21202162A384E384EA
:10351000C4F84CC06064A06B45F2310E45F26F05F3
:103520002268C0F6000EC0F60005C0E910E544F6BA
:103530003D75C0F600050432C0E9145CFEF736F9AB
:1035400020686FF0400140F8141B50E8000F00BFE6
:10355000216840F0800041E805021AB1206850E877
:10356000050FF5E7B0BD704770470000FEE70000AB
:1035700070B586B004464FF4006040F2184500264E
:1035800001900120C4F202050596CDE90206032050
:103590000490A5F1180001A9FEF754F94FF08060DE
:1035A0004FF48061286000BF62B2B2F1FF3F4FF478
:1035B0000062C8BF4FF000622A600E22013A00BFCD
:1035C000FCD10E22296000BF013A00BFFCD10E22BF
:1035D000286000BF013A00BFFCD16400072E06F14D
:1035E0000106E1D306B070BDB0B586B040F2184414
:1035F00000204FF400650121C4F2020405900195FA
:10360000CDE9021003200490A4F1180001A9FEF7EF
:1036100019F94FF48060256020601C20013800BF3C
:10362000FCD14FF0006020601C2000BF013800BFBB
:10363000FCD14FF08060206006B0B0BD10B586B000
:103640004FF4006140F21844002001910121C4F2BE
:1036500002040590CDE9021003200490A4F11800A3
:1036600001A9FEF7EFF84FF0806020604FF0006096
:1036700020601C20013800BFFCD14FF48060206026
:103680004FF4006020601C20013800BFFCD106B060
:1036900010BD0000B0B586B000204FF4006540F2C8
:1036A00000440590CDE901500120C4F202040390CA
:1036B0000320049001A92046FEF7C4F80720A56165
:1036C000013800BFFCD14FF48060A061072000BF2B
:1036D000013800BFFCD100202169090507D5FA286F
:1036E00000F10100F8D3FFF7A9FF012003E04FF03C
:1036F0008060A061002006B0B0BD0000FEE70000C1
:1037000043F60C00C4F202000168090644BF8021A0
:10371000817000BFFEE700002DE9F04F83B040F656
:10372000F46EC2F2000EDEF800406069C00700F0DF
:1037300071856069A169014200F06C856069A169C9
:1037400025460840800244BF4FF400106061606964
:10375000A1690840C00244BF4FF4801060616069F5
:10376000A1690840400144BF4FF08060606160691A
:10377000A1690840800744BF022060616069A169B7
:103780000840800040F1A0804FF000506061D4F804
:1037900040042546C00740F09780204603F04AFACF
:1037A000204603F023FA40F6F462C2F20002507A97
:1037B000022810D11068D0F8001421F00301C0F8DD
:1037C0000014D0F8001441F00101C0F800144BF6C9
:1037D0008031C0F80414D2F820740120002587F845
:1037E0002D0487F82C54D7F8DC8487F82F54D8F8A8
:1037F0001414012942D0D8F80090C8F81404029596
:10380000D9F8080047F6FF7620F00100C9F8080053
:103810004846C3F6FF7603F00DFA484603F0E6F992
:1038200009F5A0604159314001F1804141512035F5
:10383000B5F5007FF6D100214A018358334003F1EA
:1038400040438350029B01330293029BB3F57A7F7E
:1038500002D81358002BF5D401311029ECD14FF0C8
:10386000FF30C9F81404C9F81400D9F8080040F072
:103870000100C9F808000020C8F81404387B0F289C
:1038800007D807EB8000D0F890146FF3DF31C0F851
:103890009014787B0F2807D807EB8000D0F890149D
:1038A0006FF3DF31C0F890140122D7F8E40407F277
:1038B000EC41C7F8EC24002207F022F840F6F46E41
:1038C000C2F2000EDEF800506869A9690840C00124
:1038D00040F18480D5F840040190D5F84004009070
:1038E000009820F02E000090019880071DD50198C7
:1038F000C00716D0DEF820140120002281F82C0425
:1039000081F82D2481F82E24C1F8EC04D1F8E404C8
:1039100001F2EC41002206F0F3FF40F6F46EC2F231
:10392000000E009840F0020000900198000749D571
:10393000009840F0080000900198400705D4DEF898
:103940002004002180F82F143CE09EF80900022892
:1039500017D10198DEF8002000F4C020D2F800143E
:10396000B0F5802F21F00301C2F80014D2F8001442
:1039700002F580600ED141F00201016041F27071E8
:103980000DE09EF8070001280AD105F580604EF68B
:10399000602104E041F0010101604BF6803141609B
:1039A000DEF820240123D2F8E40482F82F3402F256
:1039B000EC41C2F8EC34002206F0A2FF40F6F46EAF
:1039C000C2F2000E0198800603D5009840F0200056
:1039D00000900098C5F84004DEF800506869A969B5
:1039E0000840000716D5DEF82004D0F8D0140131C5
:1039F000C0F8D01401680B290AD1D0F8881439B165
:103A00008969884740F6F46EC2F2000EDEF8005075
:103A1000082068616869A9690840800140F17F83D6
:103A2000D5F814049EF80510002900F0758385B2BE
:103A300004F5A0644FF0000B4FF0000808F00F00F1
:103A400025FA00F0C00700F0EF8154F80B10DEF803
:103A5000000009040BEB000ADAF80825DAF80C3547
:103A60000AF5A06902EA030202F004016AD40029FF
:103A700040F08880D9F80810D9F80C201140890648
:103A800000F19380D9F80810D9F80C20114089056D
:103A900000F1C280D9F80810D9F80C201140C907EC
:103AA00040F0C280D9F80810D9F80C20114049061E
:103AB00000F1DC80D9F80810D9F80C201140090772
:103AC00000F1F581D9F80810D9F80C201140C90689
:103AD00000F1F481D9F80810D9F80C20114009063A
:103AE00000F18E82D9F80810D9F80C201140490550
:103AF00000F1A182D9F80800D9F80C10084080071D
:103B000040F192810220CAF808050EEB4B00016DCE
:103B10000139082900F28881DFE811F0B30286013B
:103B2000C802D002E0020D02090086010900416CC2
:103B300002220131032902654164C0F0D2820021D2
:103B400040E200BF71BBD9F80810D9F80C20114031
:103B5000C9055DD4D9F80810D9F80C20114009071F
:103B60005FD4D9F80810D9F80C201140490579D450
:103B7000D9F80810D9F80C201140090600F18A8004
:103B800049469CE00421CAF808150EEB4B010722B8
:103B90000A655FFA88F103F071F840F6F46EC2F23C
:103BA000000E41E10721042276E02021CAF8081521
:103BB0000EEB4B06717E01290DD100217176022199
:103BC000F164032131655FFA88F103F057F840F69C
:103BD000F46EC2F2000EB07E012840F02581F07E26
:103BE000002840F0218196F82600032101281CBFFF
:103BF0000120F076DEF8000031655FFA88F103F00D
:103C00003DF840F6F46E0020C2F2000E70640BE145
:103C100008214FF480723FE04FF40071CAF8081594
:103C2000B7E70621082237E00EEB4B0100224A6479
:103C3000D9F80820D9F80C301A40520604D50122D0
:103C40004A764022CAF80825CA7E3AB10022CA76CE
:103C5000DAF8042522F48032CAF804250122C9F8D2
:103C6000082095E709214FF4806215E00EEB4B0127
:103C70008A7E002A4FF005020A6504BF01224A76B7
:103C800000224A645FFA88F102F0F8FF4020CAF887
:103C9000080582E707218022CAF808250EEB4B02AF
:103CA00011655FFA88F102F0E9FF40F6F46EC2F2A6
:103CB000000EDEF800000BEB000101F5A0618A6840
:103CC000C9681140890539D40BEB0001D1F80825EA
:103CD000D1F80C151140C9073DD100EB0B01D1F80B
:103CE0000825D1F80C351A40920668D4D1F8082579
:103CF000D1F80C351A40920700F1A080D1F80825C0
:103D0000D1F80C351A40520600F1C380D1F80825CD
:103D1000D1F80C151140C90640F186800EEB4B0618
:103D200096F82610002900F0DD80022900F0DA80E4
:103D3000032940F0EB8000217164DDE05FFA88F137
:103D400002F09CFF40F6F46E4FF40070C2F2000ED9
:103D5000CAF8080568E02021CAF808150EEB4B07E1
:103D6000F97E012907D10021F976DAF8041521F44A
:103D70008031CAF804159EF8061031B1396BDAF8B3
:103D800010256FF3DF42891AB963012200213A65D9
:103D90007964CAF8082597F82610032932D8DFE895
:103DA00001F0021A021A5FFA88F102F067FF40F68A
:103DB000F46E1020C2F2000ECAF8080522E020219D
:103DC000CAF808150EEB4B018A7E012A2CD101227C
:103DD000CA760322DCE6DAF80005002240F0005043
:103DE000CAF80005DEF820140120F864C1F8EC04DC
:103DF000D1F8E40401F2EC4106F082FD40F6F46EE5
:103E0000C2F2000E9EF80600012807D1B86B398D6A
:103E100008440138B0FBF1F0C00705D097F83C002A
:103E200080F0010087F83C009EF8050008F10108C9
:103E300080450BF1200BFFF401AE6BE10220CAF8C4
:103E400008050EEB4B00016D0139082900F2CB800B
:103E5000DFE801F0750579989D7106B40600E3E787
:103E6000416C02220131032902654164C0F0AE8039
:103E7000817E01294FF00001416440F0A4800021BF
:103E8000A0F81B10DAF8041521F48031CAF80415E3
:103E900099E04021CAF808150EEB4B018A7E002AF2
:103EA0004FF005020A6504BF00224A6471E608214A
:103EB000CAF808150EEB4B01062269E60EEB4B0122
:103EC0004A7E0023002A4FF004024B640A6503D1A6
:103ED0000A7E0AB901224A765FFA88F102F0CEFE24
:103EE0001020D4E69EF8061000294FF000017164FE
:103EF00002D0F17E012909D1042131655FFA88F1F0
:103F000002F0BCFE40F6F46EC2F2000EF07E012814
:103F10000DD10020F076DAF8040520F48030CAF8DC
:103F20000405DAF80C0540F02000CAF80C05102052
:103F3000C9F8080078E702210165052144E0022163
:103F40000165012140E0C17E0222012902654AD1BA
:103F5000C264DAF8041541F48031CAF80415DAF8BD
:103F60000C1541F04001CAF80C15DAF80C1521F0D7
:103F70002001CAF80C1590F8260040F00200022833
:103F80002BD030E090F826100222026520E0C17E9E
:103F900002220129026526D190F82610032917D1A3
:103FA000816C01310329816469D3416C00228264F0
:103FB0000229C2769CBF0121017763E7416C02228E
:103FC0000131026541640421C1640CE090F82610BF
:103FD00041F002010229C26405D1DAF8000562F35A
:103FE0009F70CAF80005DEF820240123D2F8E4040B
:103FF00002F2EC41C2F8EC34002206F081FCCCE580
:104000009EF8061021B30EEB4B00416C01310329E1
:1040100041642AD30021DEF8202441640421C164D4
:10402000D2F8E404012302F2EC41C2F8EC3400229D
:1040300006F066FC14E00EEB4B0109220A655FFAFC
:1040400088F102F01BFE40F6F46E4FF480607DE6CE
:104050000EEB4B0107220A655FFA88F102F00EFEB3
:1040600040F6F46EC2F2000E07E00221C164DAF8F5
:10407000000561F39F70CAF80005802068E6C264FD
:10408000B1E790F82610022201F0FE0102294FF05C
:1040900001010265C164A6D19EF80610012922D053
:1040A00040F6F46EC2F2000E69B39CE7C17E0129AE
:1040B0004FF00201016596D1022185E7C17E0222FF
:1040C00001290265C2647FF48EAF0021C176DAF85F
:1040D000040520F48030CAF8040584E70221016554
:1040E00072E7C26479E7416B40F6F46E0029C2F2D0
:1040F000000E3FF478AF028D11440139B1FBF2F1AB
:10410000C9073FF470AF90F83D1081F0010180F8CD
:104110003D1068E7DEF800504FF000706861686994
:10412000A9690840C00675D5A86920F01000A861EB
:104130002C6A04F4F010B0F5802FC4F30A1163D197
:10414000002961D004F00F0C0EEB8C18C2465AF80F
:104150002C2F002A58D0C14659F8380F59F8046C52
:1041600000EB010EB64507D940F6F46E0420C2F20A
:10417000000EC8F84C0047E0200900F003060020BC
:10418000B0EB910F144608D08F084FF480501446BE
:104190002B58013F44F8043BFAD196B14FF48050BC
:1041A0002A58002722FA07F0013E04F8010B3004D8
:1041B00007F10807F6D1D9F80000DAF8002000EB83
:1041C000010E5018CAF80000C9F800E005EB4C10C9
:1041D000D0F810250023C1F6F87340F6F46E1A42A9
:1041E000C2F2000E10D0B8F8282091420CD100F590
:1041F000A0600168022262F39F71016098F83C00A0
:1042000080F0010088F83C00DEF80000816941F090
:104210001001816103B0BDE8F08F000000000000D4
:10422000EFF30980BFF36F8F154B1A681EF0100F64
:1042300008BF20ED108A20E9F04F10602DE9090039
:104240004FF0500080F31188BFF34F8FBFF36F8F93
:1042500009F0D8FE4FF0000080F31188BDE8090096
:1042600019680868B0E8F04F1EF0100F08BFB0ECF6
:10427000108A80F30988BFF36F8F704700BF00BFBB
:10428000A4C101202DE9F04381B040F2A819C2F287
:10429000000999F80010044699BB03204FF6EA4143
:1042A0000027C0F6000140F25022C9F82870C9E981
:1042B000040009F11800C2F200024FF480638EC0BE
:1042C0004CF28000C2F20100C9F82C70C9E9181044
:1042D00045F252401022C0F25400C9F86820C9F8D3
:1042E0006C70C9E91C77C9F8070044F25350C4F256
:1042F0004770C9F8000044F24750C2F25200C9F8B2
:104300000300EFF311884FF0200181F31188D9F8F1
:104310002C0002280CD0012838D0002840F08280E0
:10432000D9F82410D9F8280088423AD9CA433CE089
:10433000D9F82460012700BFD9F828108E4205D291
:10434000F243D9F82000114405E000BFD9F820005D
:10435000F24311440144851BA94238BF0D46D9F8E8
:104360001C00BD4228BF3D46304421462A46FCF78A
:10437000AFFED9F82000A9197F1B0E1A2C4418BFD4
:104380000E46002FC9F82460D6D14BE0D9F824702E
:10439000D9F82810B94215D9FA43D9F820008D1858
:1043A00015E0D9F82020CB4318441044D0B3D9E904
:1043B0000720451A022D02EB010025D322784E1C5E
:1043C00002702DE0D9F82000FA4311440D18002D99
:1043D00018BF0125C61BD9F81C00AE42384405D9C8
:1043E00021462A46FCF774FE3D440AE02146324647
:1043F000FCF76EFEAD1BD9F81C00A1192A46FCF78C
:1044000067FEC9F824500DE021462A46FCF760FEFD
:10441000C5F10106D9F81C0061193246FCF758FEB7
:10442000C9F8246088F3118801B0BDE8F08300006A
:10443000074B19680868B0E8F04F80F30988BFF3AC
:104440006F8F4FF0000080F31188704700BF00BFEE
:10445000A4C1012086B040F2F464C2F20004002539
:1044600004F59160482184F8D854FCF7BEFB01267E
:1044700040202560C4E90156C4F8D054A0734FF41D
:104480008070C4F8280404F128004FF4806126628B
:1044900084F82450FCF7A9FB04F232405021FCF7C9
:1044A000D0F946F69D30C0F6000084F82F5484F809
:1044B0002C5484F82D5484F82E54C4F8E0041020B1
:1044C0000421002206F0D6F940F28412C4F8E40474
:1044D000C2F20002B4A010604FF400601821C2E9DB
:1044E000050146F2BD50C0F60000214606F0DCFB97
:1044F00094F8D814C4F8E80429B1D4F88C0400283E
:1045000079D072B6FEE740F6F46740F20008C2F2D6
:104510000007C4F204084FF00C09FE710226C7F828
:104520002044C4F8DC74C7F80080A7F80590A7F809
:104530000960FD72BD733D74D7F8180490BB0DF18E
:10454000040A4FF0000B50461421C7F814B4FCF7CE
:104550004CFB43F63005CDF800B0C4F202052868E4
:1045600001A940F002002860286800F002000090D5
:1045700000984FF4404081E841080320CDE9040948
:1045800040F20040C4F202005146FDF75BF9CDF85D
:1045900000B0286840F000502860286800F0005003
:1045A000009000980320C7F81804D7E900594FF489
:1045B0008071A86820F00100A860787AB1EB002F24
:1045C00032D1387CA96B4FF6BF7221F48031A963D8
:1045D000E968CFF6BD721140E960E968012821F46D
:1045E0004011E96003D1E86840F48010E860284693
:1045F00002F0D6FA2AE00120C4F88C044CF208003C
:10460000C2F20100C4F88404204601F059FD41F2D1
:10461000F060C2F2010001680268521AC92AFBD395
:10462000012006F0BBF8FBE77E7BE86840F0400025
:10463000E860284602F0B4FAA96B0022B2EB062F1C
:1046400014BF21F4803141F48031A96309F47F0162
:10465000B1F5803F07D1A96841F00601A960A968BA
:1046600041F02001A960F0B93D680021E86820F020
:10467000C040E860E86840F00050E86041F2F06057
:10468000C2F20100026800BF03689B1A0B2BFBD328
:104690006B69BD2901F10A0203D813F0010111462B
:1046A000F0D0C82A05D10220C7F8180472B600BF9E
:1046B000FEE70020D7F804A0C5F8000EA86B4FEA6B
:1046C0001A2640F40010A863A86B20F40020A86309
:1046D000A86B20F48020A863E868400609D40AF09B
:1046E0007F41D5F80004B1F1807F04D140F004008F
:1046F00003E0D5F8000420F00400C5F800042846C3
:1047000002F098FA8146284602F070FAF1B259B1E7
:1047100005F5A0624FF0FF33002600BF9360D6601E
:10472000013902F12002F9D10021A9614FF0FF31D6
:10473000454569610BD0802169628021C0F260012A
:10474000A962E021C0F24001C5F800110EE04FF46B
:104750000071696240F20021C0F20011C8F828100F
:1047600040F20031C0F2E001C8F800111AF47F0FE6
:1047700040EA090003D1A96941F01001A961A969C2
:104780000822CAF220321143A9610221002808BF81
:104790000121C7F818147FF489AF3868D0F80804ED
:1047A00080B2C4F8D004A8E6555342485F517565FD
:1047B0007565000080B54EF21000CEF20000006872
:1047C00047F64420C2F201000068C8B141F2F86027
:1047D000C2F2010000684FF0500080F31188BFF36F
:1047E0006F8FBFF34F8F0AF037FD30B14EF6045094
:1047F000CEF200004FF080510160002080F311885C
:1048000080BD4EF60850CEF20000D0F8801041F482
:104810007001C0F880104FF000610160704741F6F0
:104820009800C2F2000000680169C90708BF70471C
:104830006FF0010101614BF68801C2F200010068CE
:1048400049685FEAC06CD1E902234FF0FF3058BFDE
:104850000120801843EBEC72C1E90202704741F677
:104860006C10C2F2000000680169C90708BF7047F8
:104870006FF0010101614BF68801C2F2000100688E
:10488000C9685FEAC06CD1E902234FF0FF3058BF1E
:104890000120801843EBEC72C1E90202704741F637
:1048A0004020C2F2000000680169C90708BF7047D4
:1048B0006FF0010101614BF68801C2F2000100684E
:1048C00089685FEAC06CD1E902234FF0FF3058BF1E
:1048D0000120801843EBEC72C1E90202704741F6F7
:1048E0001430C2F2000000680169C90708BF7047B0
:1048F0006FF0010101614BF68801C2F2000100680E
:1049000009685FEAC06CD1E902234FF0FF3058BF5D
:104910000120801843EBEC72C1E9020270470000ED
:10492000F0B581B02DED0E8B41F6E830C2F20000FB
:1049300000680169C90700F03F816FF00101016162
:1049400041F61430C2F2000000684BF68805C2F24E
:104950000005D0F824C02A689FED998A93681769EA
:10496000D168A3FB07E4FE1703FB064316687943EF
:104970001EEB0C075941BB1B00EE103A6868C2E9F8
:104980000071B8EEC00A80EE082A9FED8E0A92ED03
:10499000053A9FED8D1A41F6980123EE013AC2F2D5
:1049A00000019FED8A9A9FED8AAA9FED8ABA9FED3A
:1049B0008ACA9FED8ADA22EE002A33EE022A92EDAD
:1049C0000F3A82ED052AB8EEC33A82EE032A09684F
:1049D00082ED062AD1F824C082680369C468A2FB6C
:1049E0000376D91702FB016104FB03F217EB0C03FA
:1049F00007685141DA1B02EE102AC0E90031B8EE17
:104A0000C22A82EE082A90ED053A23EE013A22EE00
:104A1000002A33EE022A90ED0F3A80ED052AB8EE17
:104A2000C33A82EE032AA96880ED062A41F64020A7
:104A3000C2F200000068D0F824C08A680B69CC6814
:104A4000A2FB0376D81702FB006004FB03F217EB0E
:104A50000C030F685041DA1B02EE102AC1E9003046
:104A6000B8EEC22A82EE082A91ED053A41F66C10A2
:104A700023EE013AC2F2000022EE002A33EE022AAF
:104A800091ED0F3A81ED052AB8EEC33A82EE032A82
:104A9000006881ED062AE968D0F824C08A680B69AD
:104AA000CC68A2FB0376D81702FB006004FB03F27C
:104AB00017EB0C030F685041DA1B02EE102AC1E914
:104AC0000030B8EEC22A82EE082A91ED053A40F68F
:104AD000104723EE011A0026C4F2020722EE000A54
:104AE00031EE000A91ED0F1A81ED050AB8EEC11AF8
:104AF00080EE010A81ED060A55F826403868B0EECE
:104B000049EA00073DD494ED060A94ED081A94EDA5
:104B10000D3A94ED0C2A31EE400A33EE031A30EED2
:104B2000411A32EE011A81EE081A94ED094A94ED09
:104B30000A5A94ED0B6A20EE087A20EE044A27EE1A
:104B4000055A94ED073A34EE054A84ED0C0A84EDDB
:104B50000D2A26EE011A34EE011A84ED0E1AB8EE73
:104B6000C30A31EE00EAB4EE4AEAF1EE10FAC8BF29
:104B7000B0EE4AEAB4EE4BEAF1EE10FAB8BFB0EE8E
:104B80004BEA626CBDEECE0A10EE100AB4EE4CEAAF
:104B90000146F1EE10FAB8BF0021B4EE4DEAF1EE95
:104BA00010FAD8BF0146204690470136BDEECE0A26
:104BB000042E84ED070A9FD1BDEC0E8B01B0F0BD31
:104BC0000AD7233C6666663FCDCCCC3D0000000092
:104BD00000007A4400007AC400007A4300007AC3DF
:104BE00041F21C60C2F2000000680169C90740F28E
:104BF0001801C4F2020105D06FF0010202614FF406
:104C000080720A600269920758BF70476FF0020213
:104C100002614FF080700860704741F2C470C2F2C8
:104C20000000FDF7E3BBF0B581B041F2F064C2F2E1
:104C3000000420680169890716D56FF002014CF263
:104C40007C050161C2F2010528684CF29411C2F2A0
:104C5000010151F82000416A002088472868C11EE0
:104C600018BF411C206829600169C90753D06FF043
:104C700001014CF27C060161C2F2010630684CF27F
:104C80009417C2F2010757F820000125416A01205C
:104C90008847306857F8200090F82110C9B1416961
:104CA0004CF6CD42CCF6CC42A1FB0212D0E9021365
:104CB00012095B1A00EE103A01EE102AC261B8EE3A
:104CC000C00AB8EEC11A80EE010A058480ED060A1A
:104CD00004E090F82010C1B18168C269013AC26154
:104CE0000ED090ED060A01EE102AB8EEC11A20EEA1
:104CF000010ABDEEC00A10EE102A1144C16005E0A1
:104D00000022C16080F8202000E0C16842681144A0
:104D100022680161516301B0F0BD10B540F6FF3E5D
:104D20000368C4F2000E40F2004C7045C4F2010C5E
:104D30000DDCB0F1804F17D040F20042C4F2000207
:104D4000904211D040F60002C4F200020AE040F6A0
:104D50000042C4F20002904206D0604504D0002216
:104D6000C4F20102904203D14A6823F07003134356
:104D700041F6FF72C4F2000290420DDC70451FDC68
:104D8000B0F1804F3FD040F20042C4F200029042A6
:104D900039D040F6000221E043F6FF72C4F201026E
:104DA00090421EDC42F20002C4F2000290422AD07D
:104DB0000022C4F20102904225D0604523D026E0B3
:104DC00040F60042C4F2000290421CD041F60002BC
:104DD000C4F20002904216D041F60042C4F2000232
:104DE0000FE044F20002C4F2010290420BD044F6FC
:104DF0000002C4F20102904205D044F20042C4F223
:104E00000102904203D1CA6823F44073134323F094
:104E100080024B69D1F800E08C681A430260C462DA
:104E200040F48062C0F828E0624504BF096901636C
:104E3000012141610169C90708BF10BD016921F065
:104E40000101016110BDB0B5026A036A22F00202DD
:104E500023F001030362D0F804E083690C6823F0B7
:104E600073038D6843EA040C40F2004440F480630D
:104E7000C4F20104A34242EA050205D1CD6822F042
:104E80000C0225F004052A43A34206D1D1E90554BA
:104E90002EF440732B4343EA040EC0F804E0C0F83C
:104EA00018C0496841630262B0BD00004FF0500174
:104EB00081F31188BFF36F8FBFF34F8F60B14CF256
:104EC0007401C2F201010A68531C0B602AB1A3B13C
:104ED000C3690A6020E000BFFEE74EF60453CEF23D
:104EE00000031B681B0612D04FF0500080F311889E
:104EF000BFF36F8FBFF34F8FFEE74FF0500080F38B
:104F00001188BFF36F8FBFF34F8F00BFFEE7C369F8
:104F10000A60002080F3118813B1D3E9001008471C
:104F2000704741F61070C2F20000FDF7E1BEC06BA1
:104F30000021C185C184016E0847000010B5C46B13
:104F400020684169626C212A11D111F080010ED0D4
:104F50000021E18450E8030F216820F0C00041E8FF
:104F600003020AB12068F5E72020606420684069E8
:104F7000A16C222907D110F0400004D00020E08568
:104F8000204600F077F8E06C216E40F010022046D9
:104F9000E264BDE8104008470168C06B0968C905B4
:104FA00030D40021C18500BF016851E8031F0268A9
:104FB00021F4807142E80313002BF5D1016851E818
:104FC000051F026821F0010142E80513002BF5D10D
:104FD000016851E8051F026821F0400142E805130D
:104FE000002BF5D120218164016B01290AD100BF7A
:104FF000016851E8031F026821F0100142E8031321
:10500000002BF5D100214163016B012902D1426FD0
:10501000818D1047C16D0847C06B01214163016B51
:10502000012903D1818D426F49081047816D0847DE
:105030000168C06B0968C90517D40021C18400BF8D
:10504000016851E8051F026821F0800142E805135C
:10505000002BF5D1016851E8031F026841F04001BF
:1050600042E80313002BF5D17047416D0847C06B30
:10507000016D0847016851E8031F026821F490712F
:1050800042E80313002BF5D1016851E8051F0268BF
:1050900021F0010142E80513002BF5D1016B012934
:1050A0000AD100BF016851E8031F026821F0100116
:1050B00042E80313002BF5D1202181640021016314
:1050C0007047000081B0816C222920D18368B3F53C
:1050D000805F08D10169002948D000F128010A68E1
:1050E00003685B680AE0014651F8282F13B9036989
:1050F000002BF5D003685B6803F07F0313700A6828
:1051000001320A60C18D01390A04C18501D001B0A4
:1051100070470168CA6822F02002CA60CA6822F497
:105120008072CA604A6922F001024A6120228264C8
:1051300000224263036B012B21D1026351E8031F5C
:10514000026821F0100142E803130168002BF5D139
:105150000A68D20606D5002200920A6800924968C1
:1051600000910099426F818D01B010470168826AF9
:1051700049686FF35F2122F8021B8262C2E7C16DAA
:1051800001B0084741F61060C2F20000FDF7B0BD63
:1051900041F69060C2F2000000210164FDF7A8BD55
:1051A000F0B581B042F2250041F69074C2F20000E1
:1051B000C2F2000402782068016802B3090644BF05
:1051C000C1685FEA016138D40168490644BFC1681B
:1051D0005FEA416147D40168890644BFC1685FEA5C
:1051E000816140F1EB804CF21911C2F2010140687B
:1051F0000A78002A50D0087801380870DEE04CF2B6
:1052000064278906C2F2000740F1A8806FF02001F0
:10521000016041683A68062A00F27680C9B2DFE888
:1052200002F004656E71757E8B005539B1FA81F11B
:10523000490939605521397190E04CF21A1142F256
:105240002403C2F20101C2F200030A781B789A42D9
:105250001DD20A78531C0B7042F21401C2F20001F5
:10526000895C4160B0E76FF040010160C16821F0E6
:105270004001C1604CF21B11C2F20101097859B31F
:1052800042F21001C2F2000101220A70A3E7C168D4
:1052900021F08001C16097E742F211014CF218122F
:1052A000C2F20001C2F201020B781778BB4280F013
:1052B00085800B785F1C0F704CF20817C2F2010753
:1052C000F85408781178884278D342F21000C2F27C
:1052D00000000121017071E041F21801C4F20201E5
:1052E0004FF080720A6080220A6074E75539B1FA83
:1052F00081F1490949003960552179712EE0B97170
:1053000003212AE0082926D3002126E0FA79397200
:1053100000217961062A18BF05223A601EE07A69E9
:10532000531C3A447B6151727969FA790331914295
:1053300004BF0621396011E0FA79002A44D0BB1D70
:10534000002500BF13F8016B013A2E44B5B2F9D124
:10535000F243D2B239E0F97104213960016849069B
:1053600010D40168090629D56FF080010160FA7E2A
:10537000B96A0332914223D24A1CBA623944097E87
:1053800041601BE06FF04001016097F82C1041B1C3
:105390004CF2DC10C2F20100006805F02BFC206822
:1053A00008E041F21801C4F202014FF080720A6075
:1053B00080220A60C16821F04001C16001B0F0BDE7
:1053C000C16821F08001F8E7FF2200238A423B6098
:1053D000C4D14CF2DC10C2F20100006805F00AFCF6
:1053E0002068BBE78268012A05D14FF4817281836E
:1053F00000218261C1830021002200F001B8000079
:1054000070B584B004468068022808D0012824D1F1
:10541000012502202161A2822562A06008E1206AA4
:1054200001380A2800F20381DFE800F0064F195C1A
:105430002C6C7E8FA044B700617B04F1180000251E
:105440000822CDE900500292204600220023039555
:1054500000F05EFE02202062E9E00125F2E0D4F8CF
:10546000D0042269A38A217BE08200200125CDE9B6
:1054700001230390204601220023009500F048FEFE
:10548000042088E094F829342069B3FA83F3A28ACF
:10549000617B5B090DF1040C01258CE80D002046B1
:1054A00000220023009500F033FED4F8D004E082FF
:1054B000062070E0607BD4F8DC1401EB8010C06C37
:1054C00004280DD002284BD11AE0607BD4F8DC14FC
:1054D00001EB8010C06C042818BF022840F08A80BD
:1054E0000B2099E0207BD4F8DC1401EB8010C06C19
:1054F000052800F0BB800428F2D0012840F09780F6
:10550000092089E0607BD4F8DC14012501EB8010D0
:10551000C06C0138042800F28B80DFE800F0037CC7
:105520008996A500072077E0217B00200125CDE9A1
:1055300001000390204601220023009500F0E8FDC1
:10554000D4F8D004E082082025E0207BD4F8DC14D5
:1055500001EB8010C06C052800F088800428BFD0C3
:10556000012864D10D200025206280E094F82904F0
:10557000617BB0FA80F0400900220125CDE90122CB
:105580000390204600220023009500F0C1FDD4F8CE
:10559000D004E0820A2020624AE094F8240001301E
:1055A000C1B2022984F8240003D801252562A56030
:1055B0003EE0D4F8E024204606219047607B00219D
:1055C0000F2884F8241007D804EB8000D0F890143A
:1055D0006FF3DF31C0F89014207B0F2807D804EB5D
:1055E0008000D0F890146FF3DF31C0F890140020E1
:1055F000206036E001281AD194F91800E18B0522C9
:1056000000284FF0070048BF032248BF09200029A7
:1056100018BF104600E0052020620322D4F8E404FD
:1056200004F2EC41C4F8EC24002205F069F90125EC
:105630000322D4F8E40404F2EC41C4F8EC24002280
:1056400005F05EF9284604B070BD0B2020620322ED
:10565000D4F8E40404F2EC41C4F8EC24002205F090
:105660004FF901200225D8E60C20206203250322F1
:10567000D4F8E40404F2EC41C4F8EC24002200263F
:1056800005F03EF90120A0602662D1E72DE9F04F38
:1056900085B0B1F5007F01D903201AE10446806886
:1056A0000E46012804F1280507D14FF4D06020836D
:1056B0004FF40070C4F81A00E683204629463246AB
:1056C000FFF79EFE002840F00481287809281CBFBF
:1056D0000920287094F82910B4F82AA0092084F829
:1056E000440484F8451494F82C10BAF5007F28BFC0
:1056F0004FF4007AD4F82D000A2EA4F846A484F8BA
:105700004814C4F84904C0F0D880BAF10A0F0191D6
:10571000C0F0D5804FF0090C002100260020092799
:105720002A7815446B781744042B40F0BE802A7801
:10573000092A4FF01A0201FB024B18BF85F800C07E
:105740008BF84EC4697802968BF84F14A9788BF8C1
:105750005014E9788BF851142B79022B28BF0223BF
:105760008BF852346979002B8BF85314AA798BF893
:105770005424EE798BF8556403962E7A8BF8566490
:1057800000F08F8002F0FE0281F0010182F002023F
:1057900011434FF0000E18BF01210491BAB25245D7
:1057A000BFF47AAF2A7815446E781744052E40F07E
:1057B0007580049810B1072028700BE003992878B1
:1057C00041B909284FF009004FF009021CBF2A70A7
:1057D000092000BF0BEBCE0686F85804687800213C
:1057E00086F85904A87886F85A0495F8039086F844
:1057F0005B94B5F804C0ACF10102A6F85CC4900A51
:1058000095F80680B1EB922F18BF032094F8292455
:10581000BCF5007F88BF0320022A86F85E840BD087
:10582000012A15D092B909F00302DFE802F017024D
:105830001F02A8F1010222E009F00302032A10D09E
:1058400022B9BCF1080F18BF032025E0032023E094
:1058500009F00302DFE802F0020D0217BCF1400F6D
:105860000EE0BCF1080F88BF032011E0BCF5007FFB
:1058700006E0A8F10102BCF1400F88BF03200F2A07
:1058800088BF032008E00021B1EB9C2F18BF032044
:10589000B8F1000F08BF03200EF1010E9E45FFF482
:1058A0007DAF029E4FF0090C0136B9B2514508D2C6
:1058B000F1B20229FFF434AF03E0002009E0002038
:1058C0000026019AF1B2022A28BF02228A4288BF2A
:1058D000032005B0BDE8F08FB0B5044680680D46E2
:1058E000012804F50A7107D14FF4D06020834FF4EA
:1058F0008070C4F81A00E58320462A46FFF780FD31
:1059000000B1B0BDD4F82802B4F82D12C4F83204A6
:1059100094F82C02A4F8371494F8291484F8360467
:1059200094F82F02022984F8390410D208384FEA7B
:10593000F001082906D2C008C0B28B2121FA00F07C
:10594000C00702D1082084F83904002004E002D105
:105950000828F7D1F9E70320092DD2D3B4F8301283
:1059600094F83622A4F83A14D4F8321284F8402479
:10597000C4F83C14B4F8371294F83922A4F841144E
:1059800084F84324B0BD0000B0B51446BAB1054652
:1059900080680A46012805F50A710AD102F54070AF
:1059A000688340F209404FF4D062C0F2FF002A83BE
:1059B000E8612846FF22FFF723FD10B1B0BD0320A8
:1059C000B0BD95F8290203281CBF0020B0BD95F892
:1059D00028020238FF2828BFFF2080B248B105F214
:1059E0002A2100228B5C023292B2824204F8013BEF
:1059F000F8D300202070B0BD70B50446D0F88804FC
:105A00000125C669F068052800F27580DFE800F01E
:105A1000037314032E41618D0A2969D304F1280010
:105A2000092200BF037818444578212D4CD01A4430
:105A300093B29942F6D85BE0F28EB2F5007F41D87E
:105A4000A06804F50A71012807D140F28160208323
:105A50004FF40850C4F81A00E2832046FFF7D0FC48
:105A600003282FD0002845D1042042E040F6212011
:105A700020834FF44850C4F81A000020E0832046E9
:105A800000210022FFF7BCFC032800D090BB0520BA
:105A90002FE040F62130208300200125E0832046BE
:105AA00000210022C4F81A50FFF7AAFC032809D0ED
:105AB00008BB0120D4F8E024F06020460221904782
:105AC000002518E0022516E0017886F82E104178AE
:105AD00086F82F1041883186017986F83210417995
